{"abi":[{"type":"constructor","inputs":[],"stateMutability":"nonpayable"},{"type":"function","name":"BASIS_POINTS","inputs":[],"outputs":[{"name":"","type":"uint256","internalType":"uint256"}],"stateMutability":"view"},{"type":"function","name":"SECONDS_PER_YEAR","inputs":[],"outputs":[{"name":"","type":"uint256","internalType":"uint256"}],"stateMutability":"view"},{"type":"function","name":"accumulatedRewards","inputs":[{"name":"","type":"address","internalType":"address"}],"outputs":[{"name":"","type":"uint256","internalType":"uint256"}],"stateMutability":"view"},{"type":"function","name":"allowance","inputs":[{"name":"owner","type":"address","internalType":"address"},{"name":"spender","type":"address","internalType":"address"}],"outputs":[{"name":"","type":"uint256","internalType":"uint256"}],"stateMutability":"view"},{"type":"function","name":"approve","inputs":[{"name":"spender","type":"address","internalType":"address"},{"name":"value","type":"uint256","internalType":"uint256"}],"outputs":[{"name":"","type":"bool","internalType":"bool"}],"stateMutability":"nonpayable"},{"type":"function","name":"balanceOf","inputs":[{"name":"account","type":"address","internalType":"address"}],"outputs":[{"name":"","type":"uint256","internalType":"uint256"}],"stateMutability":"view"},{"type":"function","name":"claimRewards","inputs":[],"outputs":[],"stateMutability":"nonpayable"},{"type":"function","name":"decimals","inputs":[],"outputs":[{"name":"","type":"uint8","internalType":"uint8"}],"stateMutability":"view"},{"type":"function","name":"emergencyWithdraw","inputs":[{"name":"to","type":"address","internalType":"address"},{"name":"amount","type":"uint256","internalType":"uint256"}],"outputs":[],"stateMutability":"nonpayable"},{"type":"function","name":"getContractStats","inputs":[],"outputs":[{"name":"totalSupply_","type":"uint256","internalType":"uint256"},{"name":"totalStaked_","type":"uint256","internalType":"uint256"},{"name":"stakingRewardRate_","type":"uint256","internalType":"uint256"},{"name":"minimumStakeAmount_","type":"uint256","internalType":"uint256"}],"stateMutability":"view"},{"type":"function","name":"getPendingRewards","inputs":[{"name":"user","type":"address","internalType":"address"}],"outputs":[{"name":"","type":"uint256","internalType":"uint256"}],"stateMutability":"view"},{"type":"function","name":"getStakingInfo","inputs":[{"name":"user","type":"address","internalType":"address"}],"outputs":[{"name":"stakedAmount","type":"uint256","internalType":"uint256"},{"name":"pendingRewards","type":"uint256","internalType":"uint256"},{"name":"stakingSince","type":"uint256","internalType":"uint256"}],"stateMutability":"view"},{"type":"function","name":"minimumStakeAmount","inputs":[],"outputs":[{"name":"","type":"uint256","internalType":"uint256"}],"stateMutability":"view"},{"type":"function","name":"name","inputs":[],"outputs":[{"name":"","type":"string","internalType":"string"}],"stateMutability":"view"},{"type":"function","name":"owner","inputs":[],"outputs":[{"name":"","type":"address","internalType":"address"}],"stateMutability":"view"},{"type":"function","name":"pause","inputs":[],"outputs":[],"stateMutability":"nonpayable"},{"type":"function","name":"paused","inputs":[],"outputs":[{"name":"","type":"bool","internalType":"bool"}],"stateMutability":"view"},{"type":"function","name":"renounceOwnership","inputs":[],"outputs":[],"stateMutability":"nonpayable"},{"type":"function","name":"setMinimumStakeAmount","inputs":[{"name":"newMinimum","type":"uint256","internalType":"uint256"}],"outputs":[],"stateMutability":"nonpayable"},{"type":"function","name":"setStakingRewardRate","inputs":[{"name":"newRate","type":"uint256","internalType":"uint256"}],"outputs":[],"stateMutability":"nonpayable"},{"type":"function","name":"stake","inputs":[{"name":"amount","type":"uint256","internalType":"uint256"}],"outputs":[],"stateMutability":"nonpayable"},{"type":"function","name":"stakedBalances","inputs":[{"name":"","type":"address","internalType":"address"}],"outputs":[{"name":"","type":"uint256","internalType":"uint256"}],"stateMutability":"view"},{"type":"function","name":"stakingRewardRate","inputs":[],"outputs":[{"name":"","type":"uint256","internalType":"uint256"}],"stateMutability":"view"},{"type":"function","name":"stakingTimestamp","inputs":[{"name":"","type":"address","internalType":"address"}],"outputs":[{"name":"","type":"uint256","internalType":"uint256"}],"stateMutability":"view"},{"type":"function","name":"symbol","inputs":[],"outputs":[{"name":"","type":"string","internalType":"string"}],"stateMutability":"view"},{"type":"function","name":"totalStaked","inputs":[],"outputs":[{"name":"","type":"uint256","internalType":"uint256"}],"stateMutability":"view"},{"type":"function","name":"totalSupply","inputs":[],"outputs":[{"name":"","type":"uint256","internalType":"uint256"}],"stateMutability":"view"},{"type":"function","name":"transfer","inputs":[{"name":"to","type":"address","internalType":"address"},{"name":"value","type":"uint256","internalType":"uint256"}],"outputs":[{"name":"","type":"bool","internalType":"bool"}],"stateMutability":"nonpayable"},{"type":"function","name":"transferFrom","inputs":[{"name":"from","type":"address","internalType":"address"},{"name":"to","type":"address","internalType":"address"},{"name":"value","type":"uint256","internalType":"uint256"}],"outputs":[{"name":"","type":"bool","internalType":"bool"}],"stateMutability":"nonpayable"},{"type":"function","name":"transferOwnership","inputs":[{"name":"newOwner","type":"address","internalType":"address"}],"outputs":[],"stateMutability":"nonpayable"},{"type":"function","name":"unpause","inputs":[],"outputs":[],"stateMutability":"nonpayable"},{"type":"function","name":"unstake","inputs":[{"name":"amount","type":"uint256","internalType":"uint256"}],"outputs":[],"stateMutability":"nonpayable"},{"type":"event","name":"Approval","inputs":[{"name":"owner","type":"address","indexed":true,"internalType":"address"},{"name":"spender","type":"address","indexed":true,"internalType":"address"},{"name":"value","type":"uint256","indexed":false,"internalType":"uint256"}],"anonymous":false},{"type":"event","name":"MinimumStakeAmountUpdated","inputs":[{"name":"oldAmount","type":"uint256","indexed":false,"internalType":"uint256"},{"name":"newAmount","type":"uint256","indexed":false,"internalType":"uint256"}],"anonymous":false},{"type":"event","name":"OwnershipTransferred","inputs":[{"name":"previousOwner","type":"address","indexed":true,"internalType":"address"},{"name":"newOwner","type":"address","indexed":true,"internalType":"address"}],"anonymous":false},{"type":"event","name":"Paused","inputs":[{"name":"account","type":"address","indexed":false,"internalType":"address"}],"anonymous":false},{"type":"event","name":"RewardsClaimed","inputs":[{"name":"user","type":"address","indexed":true,"internalType":"address"},{"name":"amount","type":"uint256","indexed":false,"internalType":"uint256"}],"anonymous":false},{"type":"event","name":"Staked","inputs":[{"name":"user","type":"address","indexed":true,"internalType":"address"},{"name":"amount","type":"uint256","indexed":false,"internalType":"uint256"},{"name":"timestamp","type":"uint256","indexed":false,"internalType":"uint256"}],"anonymous":false},{"type":"event","name":"StakingRewardRateUpdated","inputs":[{"name":"oldRate","type":"uint256","indexed":false,"internalType":"uint256"},{"name":"newRate","type":"uint256","indexed":false,"internalType":"uint256"}],"anonymous":false},{"type":"event","name":"Transfer","inputs":[{"name":"from","type":"address","indexed":true,"internalType":"address"},{"name":"to","type":"address","indexed":true,"internalType":"address"},{"name":"value","type":"uint256","indexed":false,"internalType":"uint256"}],"anonymous":false},{"type":"event","name":"Unpaused","inputs":[{"name":"account","type":"address","indexed":false,"internalType":"address"}],"anonymous":false},{"type":"event","name":"Unstaked","inputs":[{"name":"user","type":"address","indexed":true,"internalType":"address"},{"name":"amount","type":"uint256","indexed":false,"internalType":"uint256"},{"name":"rewards","type":"uint256","indexed":false,"internalType":"uint256"}],"anonymous":false},{"type":"error","name":"ERC20InsufficientAllowance","inputs":[{"name":"spender","type":"address","internalType":"address"},{"name":"allowance","type":"uint256","internalType":"uint256"},{"name":"needed","type":"uint256","internalType":"uint256"}]},{"type":"error","name":"ERC20InsufficientBalance","inputs":[{"name":"sender","type":"address","internalType":"address"},{"name":"balance","type":"uint256","internalType":"uint256"},{"name":"needed","type":"uint256","internalType":"uint256"}]},{"type":"error","name":"ERC20InvalidApprover","inputs":[{"name":"approver","type":"address","internalType":"address"}]},{"type":"error","name":"ERC20InvalidReceiver","inputs":[{"name":"receiver","type":"address","internalType":"address"}]},{"type":"error","name":"ERC20InvalidSender","inputs":[{"name":"sender","type":"address","internalType":"address"}]},{"type":"error","name":"ERC20InvalidSpender","inputs":[{"name":"spender","type":"address","internalType":"address"}]},{"type":"error","name":"EnforcedPause","inputs":[]},{"type":"error","name":"ExpectedPause","inputs":[]},{"type":"error","name":"OwnableInvalidOwner","inputs":[{"name":"owner","type":"address","internalType":"address"}]},{"type":"error","name":"OwnableUnauthorizedAccount","inputs":[{"name":"account","type":"address","internalType":"address"}]},{"type":"error","name":"ReentrancyGuardReentrantCall","inputs":[]}],"bytecode":{"object":"0x60806040526101f4600b556100166012600a6103ad565b61002190600a6103c3565b600d5534801561003057600080fd5b50336040518060400160405280600b81526020016a2722a1aa29102a37b5b2b760a91b815250604051806040016040528060058152602001642722a1aa2960d91b81525081600390816100839190610479565b5060046100908282610479565b5050506001600160a01b0381166100c257604051631e4fbdf760e01b8152600060048201526024015b60405180910390fd5b6100cb816100f8565b5060016006556100f3336100e16012600a6103ad565b6100ee90620f42406103c3565b61014a565b61054a565b600580546001600160a01b038381166001600160a01b0319831681179093556040519116919082907f8be0079c531659141344cd1fd0a4f28419497f9722a3daafe3b4186f6b6457e090600090a35050565b6001600160a01b0382166101745760405163ec442f0560e01b8152600060048201526024016100b9565b61018060008383610184565b5050565b6001600160a01b0383166101af5780600260008282546101a49190610537565b909155506102219050565b6001600160a01b038316600090815260208190526040902054818110156102025760405163391434e360e21b81526001600160a01b038516600482015260248101829052604481018390526064016100b9565b6001600160a01b03841660009081526020819052604090209082900390555b6001600160a01b03821661023d5760028054829003905561025c565b6001600160a01b03821660009081526020819052604090208054820190555b816001600160a01b0316836001600160a01b03167fddf252ad1be2c89b69c2b068fc378daa952ba7f163c4a11628f55a4df523b3ef836040516102a191815260200190565b60405180910390a3505050565b634e487b7160e01b600052601160045260246000fd5b6001815b60018411156102ff578085048111156102e3576102e36102ae565b60018416156102f157908102905b60019390931c9280026102c8565b935093915050565b600082610316575060016103a7565b81610323575060006103a7565b816001811461033957600281146103435761035f565b60019150506103a7565b60ff841115610354576103546102ae565b50506001821b6103a7565b5060208310610133831016604e8410600b8410161715610382575081810a6103a7565b61038f60001984846102c4565b80600019048211156103a3576103a36102ae565b0290505b92915050565b60006103bc60ff841683610307565b9392505050565b80820281158282048414176103a7576103a76102ae565b634e487b7160e01b600052604160045260246000fd5b600181811c9082168061040457607f821691505b60208210810361042457634e487b7160e01b600052602260045260246000fd5b50919050565b601f82111561047457806000526020600020601f840160051c810160208510156104515750805b601f840160051c820191505b81811015610471576000815560010161045d565b50505b505050565b81516001600160401b03811115610492576104926103da565b6104a6816104a084546103f0565b8461042a565b6020601f8211600181146104da57600083156104c25750848201515b600019600385901b1c1916600184901b178455610471565b600084815260208120601f198516915b8281101561050a57878501518255602094850194600190920191016104ea565b50848210156105285786840151600019600387901b60f8161c191681555b50505050600190811b01905550565b808201808211156103a7576103a76102ae565b611598806105596000396000f3fe608060405234801561001057600080fd5b50600436106101f05760003560e01c8063817b1cd21161010f578063aa4704f3116100a2578063e1f1c4a711610071578063e1f1c4a714610463578063e6a69ab81461046c578063f2fde38b14610477578063f6ed20171461048a57600080fd5b8063aa4704f3146103c1578063b7d68519146103ef578063dd62ed3e14610402578063dfe6b5d61461043b57600080fd5b806395ccea67116100de57806395ccea671461038057806395d89b4114610393578063a694fc3a1461039b578063a9059cbb146103ae57600080fd5b8063817b1cd2146103345780638456cb591461033d5780638da5cb5b146103455780638f0794fe1461036057600080fd5b8063372500ab116101875780636b036f45116101565780636b036f45146102da57806370a08231146102e3578063715018a61461030c57806373f273fc1461031457600080fd5b8063372500ab146102b65780633f4ba83a146102be5780634f3fc2df146102c65780635c975abb146102cf57600080fd5b806318160ddd116101c357806318160ddd1461027957806323b872dd146102815780632e17de7814610294578063313ce567146102a757600080fd5b806306fdde03146101f5578063095ea7b3146102135780630d29fcd4146102365780631460fa871461024b575b600080fd5b6101fd61049d565b60405161020a919061135b565b60405180910390f35b6102266102213660046113c5565b61052f565b604051901515815260200161020a565b6102496102443660046113ef565b610549565b005b61026b610259366004611408565b60086020526000908152604090205481565b60405190815260200161020a565b60025461026b565b61022661028f36600461142a565b6105ec565b6102496102a23660046113ef565b610610565b6040516012815260200161020a565b6102496107aa565b6102496108c8565b61026b600b5481565b60075460ff16610226565b61026b600d5481565b61026b6102f1366004611408565b6001600160a01b031660009081526020819052604090205490565b6102496108d8565b61026b610322366004611408565b600a6020526000908152604090205481565b61026b600c5481565b6102496108ea565b6005546040516001600160a01b03909116815260200161020a565b61026b61036e366004611408565b60096020526000908152604090205481565b61024961038e3660046113c5565b6108fa565b6101fd6109c0565b6102496103a93660046113ef565b6109cf565b6102266103bc3660046113c5565b610b76565b6103d46103cf366004611408565b610b84565b6040805193845260208401929092529082015260600161020a565b6102496103fd3660046113ef565b610c22565b61026b610410366004611467565b6001600160a01b03918216600090815260016020908152604080832093909416825291909152205490565b610443610cb3565b60408051948552602085019390935291830152606082015260800161020a565b61026b61271081565b61026b6301e1338081565b610249610485366004611408565b610cd9565b61026b610498366004611408565b610d14565b6060600380546104ac9061149a565b80601f01602080910402602001604051908101604052809291908181526020018280546104d89061149a565b80156105255780601f106104fa57610100808354040283529160200191610525565b820191906000526020600020905b81548152906001019060200180831161050857829003601f168201915b5050505050905090565b60003361053d818585610df0565b60019150505b92915050565b610551610e02565b600081116105a65760405162461bcd60e51b815260206004820152601e60248201527f4d696e696d756d206d7573742062652067726561746572207468616e2030000060448201526064015b60405180910390fd5b600d80549082905560408051828152602081018490527fe3117c3cc31e2d5d67afc8b5c366cd87a436cd3aaf93a169500733f4ebfb96ad91015b60405180910390a15050565b6000336105fa858285610e2f565b610605858585610eae565b506001949350505050565b610618610f0d565b600081116106685760405162461bcd60e51b815260206004820152601760248201527f43616e6e6f7420756e7374616b65203020746f6b656e73000000000000000000604482015260640161059d565b336000908152600860205260409020548111156106c75760405162461bcd60e51b815260206004820152601b60248201527f496e73756666696369656e74207374616b65642062616c616e63650000000000604482015260640161059d565b6106d033610f37565b336000908152600a60209081526040808320805490849055600890925282208054919284926107009084906114ea565b9250508190555081600c600082825461071991906114ea565b90915550503360009081526008602052604090205415610746573360009081526009602052604090204290555b610751303384610eae565b8015610761576107613382610ffe565b604080518381526020810183905233917f7fc4727e062e336010f2c282598ef5f14facb3de68cf8195c2f23e1454b2b74e910160405180910390a2506107a76001600655565b50565b6107b2610f0d565b336000908152600860205260409020546108015760405162461bcd60e51b815260206004820152601060248201526f139bc81d1bdad95b9cc81cdd185ad95960821b604482015260640161059d565b61080a33610f37565b336000908152600a60205260409020548061085d5760405162461bcd60e51b81526020600482015260136024820152724e6f207265776172647320746f20636c61696d60681b604482015260640161059d565b336000818152600a60209081526040808320839055600990915290204290556108869082610ffe565b60405181815233907ffc30cddea38e2bf4d6ea7d3f9ed3b6ad7f176419f4963bd81318067a4aee73fe9060200160405180910390a2506108c66001600655565b565b6108d0610e02565b6108c6611034565b6108e0610e02565b6108c66000611086565b6108f2610e02565b6108c66110d8565b610902610e02565b61090a611115565b6001600160a01b0382166109525760405162461bcd60e51b815260206004820152600f60248201526e496e76616c6964206164647265737360881b604482015260640161059d565b306000908152602081905260409020548111156109b15760405162461bcd60e51b815260206004820152601d60248201527f496e73756666696369656e7420636f6e74726163742062616c616e6365000000604482015260640161059d565b6109bc308383610eae565b5050565b6060600480546104ac9061149a565b6109d7610f0d565b6109df611138565b60008111610a275760405162461bcd60e51b815260206004820152601560248201527443616e6e6f74207374616b65203020746f6b656e7360581b604482015260640161059d565b600d54811015610a795760405162461bcd60e51b815260206004820152601a60248201527f416d6f756e742062656c6f77206d696e696d756d207374616b65000000000000604482015260640161059d565b33600090815260208190526040902054811115610acf5760405162461bcd60e51b8152602060048201526014602482015273496e73756666696369656e742062616c616e636560601b604482015260640161059d565b610ad833610f37565b610ae3333083610eae565b3360009081526008602052604081208054839290610b029084906114fd565b9250508190555080600c6000828254610b1b91906114fd565b90915550503360008181526009602090815260409182902042908190558251858152918201527f1449c6dd7851abc30abf37f57715f492010519147cc2652fbc38202c18a6ee90910160405180910390a26107a76001600655565b60003361053d818585610eae565b6001600160a01b03811660008181526008602052604080822054905163f6ed201760e01b81526004810193909352918190309063f6ed201790602401602060405180830381865afa158015610bdd573d6000803e3d6000fd5b505050506040513d601f19601f82011682018060405250810190610c019190611510565b6001600160a01b039094166000908152600960205260409020549294915050565b610c2a610e02565b6107d0811115610c755760405162461bcd60e51b8152602060048201526016602482015275526174652063616e6e6f74206578636565642032302560501b604482015260640161059d565b600b80549082905560408051828152602081018490527fc68458eaf1fcc6681f9b18ea24bddb0641c40c625df6c1e5b72f865224b5d9c991016105e0565b600080600080610cc260025490565b9350600c549250600b549150600d54905090919293565b610ce1610e02565b6001600160a01b038116610d0b57604051631e4fbdf760e01b81526000600482015260240161059d565b6107a781611086565b6001600160a01b0381166000908152600860205260408120548103610d4f57506001600160a01b03166000908152600a602052604090205490565b6001600160a01b038216600090815260096020526040812054610d7290426114ea565b90506000610d866301e13380612710611529565b600b546001600160a01b0386166000908152600860205260409020548491610dad91611529565b610db79190611529565b610dc19190611540565b6001600160a01b0385166000908152600a6020526040902054909150610de89082906114fd565b949350505050565b610dfd838383600161115c565b505050565b6005546001600160a01b031633146108c65760405163118cdaa760e01b815233600482015260240161059d565b6001600160a01b03838116600090815260016020908152604080832093861683529290522054600019811015610ea85781811015610e9957604051637dc7a0d960e11b81526001600160a01b0384166004820152602481018290526044810183905260640161059d565b610ea88484848403600061115c565b50505050565b6001600160a01b038316610ed857604051634b637e8f60e11b81526000600482015260240161059d565b6001600160a01b038216610f025760405163ec442f0560e01b81526000600482015260240161059d565b610dfd838383611231565b600260065403610f3057604051633ee5aeb560e01b815260040160405180910390fd5b6002600655565b6001600160a01b038116600090815260086020526040902054156107a7576001600160a01b038116600090815260096020526040812054610f7890426114ea565b90506000610f8c6301e13380612710611529565b600b546001600160a01b0385166000908152600860205260409020548491610fb391611529565b610fbd9190611529565b610fc79190611540565b6001600160a01b0384166000908152600a6020526040812080549293508392909190610ff49084906114fd565b9091555050505050565b6001600160a01b0382166110285760405163ec442f0560e01b81526000600482015260240161059d565b6109bc60008383611231565b61103c611115565b6007805460ff191690557f5db9ee0a495bf2e6ff9c91a7834c1ba4fdd244a5e8aa4e537bd38aeae4b073aa335b6040516001600160a01b03909116815260200160405180910390a1565b600580546001600160a01b038381166001600160a01b0319831681179093556040519116919082907f8be0079c531659141344cd1fd0a4f28419497f9722a3daafe3b4186f6b6457e090600090a35050565b6110e0611138565b6007805460ff191660011790557f62e78cea01bee320cd4e420270b5ea74000d11b0c9f74754ebdbfc544b05a2586110693390565b60075460ff166108c657604051638dfc202b60e01b815260040160405180910390fd5b60075460ff16156108c65760405163d93c066560e01b815260040160405180910390fd5b6001600160a01b0384166111865760405163e602df0560e01b81526000600482015260240161059d565b6001600160a01b0383166111b057604051634a1406b160e11b81526000600482015260240161059d565b6001600160a01b0380851660009081526001602090815260408083209387168352929052208290558015610ea857826001600160a01b0316846001600160a01b03167f8c5be1e5ebec7d5bd14f71427d1e84f3dd0314c0f7b2291e5b200ac8c7c3b9258460405161122391815260200190565b60405180910390a350505050565b6001600160a01b03831661125c57806002600082825461125191906114fd565b909155506112ce9050565b6001600160a01b038316600090815260208190526040902054818110156112af5760405163391434e360e21b81526001600160a01b0385166004820152602481018290526044810183905260640161059d565b6001600160a01b03841660009081526020819052604090209082900390555b6001600160a01b0382166112ea57600280548290039055611309565b6001600160a01b03821660009081526020819052604090208054820190555b816001600160a01b0316836001600160a01b03167fddf252ad1be2c89b69c2b068fc378daa952ba7f163c4a11628f55a4df523b3ef8360405161134e91815260200190565b60405180910390a3505050565b602081526000825180602084015260005b81811015611389576020818601810151604086840101520161136c565b506000604082850101526040601f19601f83011684010191505092915050565b80356001600160a01b03811681146113c057600080fd5b919050565b600080604083850312156113d857600080fd5b6113e1836113a9565b946020939093013593505050565b60006020828403121561140157600080fd5b5035919050565b60006020828403121561141a57600080fd5b611423826113a9565b9392505050565b60008060006060848603121561143f57600080fd5b611448846113a9565b9250611456602085016113a9565b929592945050506040919091013590565b6000806040838503121561147a57600080fd5b611483836113a9565b9150611491602084016113a9565b90509250929050565b600181811c908216806114ae57607f821691505b6020821081036114ce57634e487b7160e01b600052602260045260246000fd5b50919050565b634e487b7160e01b600052601160045260246000fd5b81810381811115610543576105436114d4565b80820180821115610543576105436114d4565b60006020828403121561152257600080fd5b5051919050565b8082028115828204841417610543576105436114d4565b60008261155d57634e487b7160e01b600052601260045260246000fd5b50049056fea2646970667358221220c541a7c9ebfb56388bc09317d408e5c230824112e78ea6211ba586639ef3219864736f6c634300081c0033","linkReferences":{}},"methodIdentifiers":{"BASIS_POINTS()":"e1f1c4a7","SECONDS_PER_YEAR()":"e6a69ab8","accumulatedRewards(address)":"73f273fc","allowance(address,address)":"dd62ed3e","approve(address,uint256)":"095ea7b3","balanceOf(address)":"70a08231","claimRewards()":"372500ab","decimals()":"313ce567","emergencyWithdraw(address,uint256)":"95ccea67","getContractStats()":"dfe6b5d6","getPendingRewards(address)":"f6ed2017","getStakingInfo(address)":"aa4704f3","minimumStakeAmount()":"6b036f45","name()":"06fdde03","owner()":"8da5cb5b","pause()":"8456cb59","paused()":"5c975abb","renounceOwnership()":"715018a6","setMinimumStakeAmount(uint256)":"0d29fcd4","setStakingRewardRate(uint256)":"b7d68519","stake(uint256)":"a694fc3a","stakedBalances(address)":"1460fa87","stakingRewardRate()":"4f3fc2df","stakingTimestamp(address)":"8f0794fe","symbol()":"95d89b41","totalStaked()":"817b1cd2","totalSupply()":"18160ddd","transfer(address,uint256)":"a9059cbb","transferFrom(address,address,uint256)":"23b872dd","transferOwnership(address)":"f2fde38b","unpause()":"3f4ba83a","unstake(uint256)":"2e17de78"},"id":29}