{
    "abi": [
        {
            "type": "constructor",
            "inputs": [],
            "stateMutability": "nonpayable"
        },
        {
            "type": "function",
            "name": "BASIS_POINTS",
            "inputs": [],
            "outputs": [
                {
                    "name": "",
                    "type": "uint256",
                    "internalType": "uint256"
                }
            ],
            "stateMutability": "view"
        },
        {
            "type": "function",
            "name": "SECONDS_PER_YEAR",
            "inputs": [],
            "outputs": [
                {
                    "name": "",
                    "type": "uint256",
                    "internalType": "uint256"
                }
            ],
            "stateMutability": "view"
        },
        {
            "type": "function",
            "name": "accumulatedRewards",
            "inputs": [
                {
                    "name": "",
                    "type": "address",
                    "internalType": "address"
                }
            ],
            "outputs": [
                {
                    "name": "",
                    "type": "uint256",
                    "internalType": "uint256"
                }
            ],
            "stateMutability": "view"
        },
        {
            "type": "function",
            "name": "allowance",
            "inputs": [
                {
                    "name": "owner",
                    "type": "address",
                    "internalType": "address"
                },
                {
                    "name": "spender",
                    "type": "address",
                    "internalType": "address"
                }
            ],
            "outputs": [
                {
                    "name": "",
                    "type": "uint256",
                    "internalType": "uint256"
                }
            ],
            "stateMutability": "view"
        },
        {
            "type": "function",
            "name": "approve",
            "inputs": [
                {
                    "name": "spender",
                    "type": "address",
                    "internalType": "address"
                },
                {
                    "name": "value",
                    "type": "uint256",
                    "internalType": "uint256"
                }
            ],
            "outputs": [
                {
                    "name": "",
                    "type": "bool",
                    "internalType": "bool"
                }
            ],
            "stateMutability": "nonpayable"
        },
        {
            "type": "function",
            "name": "balanceOf",
            "inputs": [
                {
                    "name": "account",
                    "type": "address",
                    "internalType": "address"
                }
            ],
            "outputs": [
                {
                    "name": "",
                    "type": "uint256",
                    "internalType": "uint256"
                }
            ],
            "stateMutability": "view"
        },
        {
            "type": "function",
            "name": "calculateApy",
            "inputs": [
                {
                    "name": "amount",
                    "type": "uint256",
                    "internalType": "uint256"
                },
                {
                    "name": "duration",
                    "type": "uint256",
                    "internalType": "uint256"
                }
            ],
            "outputs": [
                {
                    "name": "apy",
                    "type": "uint256",
                    "internalType": "uint256"
                }
            ],
            "stateMutability": "view"
        },
        {
            "type": "function",
            "name": "claimRewards",
            "inputs": [],
            "outputs": [
                {
                    "name": "success",
                    "type": "bool",
                    "internalType": "bool"
                },
                {
                    "name": "rewardsClaimed",
                    "type": "uint256",
                    "internalType": "uint256"
                }
            ],
            "stateMutability": "nonpayable"
        },
        {
            "type": "function",
            "name": "decimals",
            "inputs": [],
            "outputs": [
                {
                    "name": "",
                    "type": "uint8",
                    "internalType": "uint8"
                }
            ],
            "stateMutability": "view"
        },
        {
            "type": "function",
            "name": "emergencyWithdraw",
            "inputs": [
                {
                    "name": "to",
                    "type": "address",
                    "internalType": "address"
                },
                {
                    "name": "amount",
                    "type": "uint256",
                    "internalType": "uint256"
                }
            ],
            "outputs": [
                {
                    "name": "success",
                    "type": "bool",
                    "internalType": "bool"
                }
            ],
            "stateMutability": "nonpayable"
        },
        {
            "type": "function",
            "name": "getAccumulatedRewards",
            "inputs": [
                {
                    "name": "user",
                    "type": "address",
                    "internalType": "address"
                }
            ],
            "outputs": [
                {
                    "name": "rewards",
                    "type": "uint256",
                    "internalType": "uint256"
                }
            ],
            "stateMutability": "view"
        },
        {
            "type": "function",
            "name": "getContractStats",
            "inputs": [],
            "outputs": [
                {
                    "name": "totalSupply_",
                    "type": "uint256",
                    "internalType": "uint256"
                },
                {
                    "name": "totalStaked_",
                    "type": "uint256",
                    "internalType": "uint256"
                },
                {
                    "name": "stakingRewardRate_",
                    "type": "uint256",
                    "internalType": "uint256"
                },
                {
                    "name": "minimumStakeAmount_",
                    "type": "uint256",
                    "internalType": "uint256"
                }
            ],
            "stateMutability": "view"
        },
        {
            "type": "function",
            "name": "getMinimumStakeAmount",
            "inputs": [],
            "outputs": [
                {
                    "name": "minimum",
                    "type": "uint256",
                    "internalType": "uint256"
                }
            ],
            "stateMutability": "view"
        },
        {
            "type": "function",
            "name": "getPendingRewards",
            "inputs": [
                {
                    "name": "user",
                    "type": "address",
                    "internalType": "address"
                }
            ],
            "outputs": [
                {
                    "name": "pendingRewards",
                    "type": "uint256",
                    "internalType": "uint256"
                }
            ],
            "stateMutability": "view"
        },
        {
            "type": "function",
            "name": "getStakedBalance",
            "inputs": [
                {
                    "name": "user",
                    "type": "address",
                    "internalType": "address"
                }
            ],
            "outputs": [
                {
                    "name": "balance",
                    "type": "uint256",
                    "internalType": "uint256"
                }
            ],
            "stateMutability": "view"
        },
        {
            "type": "function",
            "name": "getStakingDuration",
            "inputs": [
                {
                    "name": "user",
                    "type": "address",
                    "internalType": "address"
                }
            ],
            "outputs": [
                {
                    "name": "duration",
                    "type": "uint256",
                    "internalType": "uint256"
                }
            ],
            "stateMutability": "view"
        },
        {
            "type": "function",
            "name": "getStakingInfo",
            "inputs": [
                {
                    "name": "user",
                    "type": "address",
                    "internalType": "address"
                }
            ],
            "outputs": [
                {
                    "name": "stakedAmount",
                    "type": "uint256",
                    "internalType": "uint256"
                },
                {
                    "name": "pendingRewards",
                    "type": "uint256",
                    "internalType": "uint256"
                },
                {
                    "name": "stakingSince",
                    "type": "uint256",
                    "internalType": "uint256"
                }
            ],
            "stateMutability": "view"
        },
        {
            "type": "function",
            "name": "getStakingRewardRate",
            "inputs": [],
            "outputs": [
                {
                    "name": "rate",
                    "type": "uint256",
                    "internalType": "uint256"
                }
            ],
            "stateMutability": "view"
        },
        {
            "type": "function",
            "name": "getStakingTimestamp",
            "inputs": [
                {
                    "name": "user",
                    "type": "address",
                    "internalType": "address"
                }
            ],
            "outputs": [
                {
                    "name": "timestamp",
                    "type": "uint256",
                    "internalType": "uint256"
                }
            ],
            "stateMutability": "view"
        },
        {
            "type": "function",
            "name": "getTotalStaked",
            "inputs": [],
            "outputs": [
                {
                    "name": "total",
                    "type": "uint256",
                    "internalType": "uint256"
                }
            ],
            "stateMutability": "view"
        },
        {
            "type": "function",
            "name": "hasStakedTokens",
            "inputs": [
                {
                    "name": "user",
                    "type": "address",
                    "internalType": "address"
                }
            ],
            "outputs": [
                {
                    "name": "hasStake",
                    "type": "bool",
                    "internalType": "bool"
                }
            ],
            "stateMutability": "view"
        },
        {
            "type": "function",
            "name": "minimumStakeAmount",
            "inputs": [],
            "outputs": [
                {
                    "name": "",
                    "type": "uint256",
                    "internalType": "uint256"
                }
            ],
            "stateMutability": "view"
        },
        {
            "type": "function",
            "name": "name",
            "inputs": [],
            "outputs": [
                {
                    "name": "",
                    "type": "string",
                    "internalType": "string"
                }
            ],
            "stateMutability": "view"
        },
        {
            "type": "function",
            "name": "owner",
            "inputs": [],
            "outputs": [
                {
                    "name": "",
                    "type": "address",
                    "internalType": "address"
                }
            ],
            "stateMutability": "view"
        },
        {
            "type": "function",
            "name": "pause",
            "inputs": [],
            "outputs": [
                {
                    "name": "success",
                    "type": "bool",
                    "internalType": "bool"
                }
            ],
            "stateMutability": "nonpayable"
        },
        {
            "type": "function",
            "name": "paused",
            "inputs": [],
            "outputs": [
                {
                    "name": "",
                    "type": "bool",
                    "internalType": "bool"
                }
            ],
            "stateMutability": "view"
        },
        {
            "type": "function",
            "name": "renounceOwnership",
            "inputs": [],
            "outputs": [],
            "stateMutability": "nonpayable"
        },
        {
            "type": "function",
            "name": "setMinimumStakeAmount",
            "inputs": [
                {
                    "name": "newMinimum",
                    "type": "uint256",
                    "internalType": "uint256"
                }
            ],
            "outputs": [
                {
                    "name": "success",
                    "type": "bool",
                    "internalType": "bool"
                }
            ],
            "stateMutability": "nonpayable"
        },
        {
            "type": "function",
            "name": "setStakingRewardRate",
            "inputs": [
                {
                    "name": "newRate",
                    "type": "uint256",
                    "internalType": "uint256"
                }
            ],
            "outputs": [
                {
                    "name": "success",
                    "type": "bool",
                    "internalType": "bool"
                }
            ],
            "stateMutability": "nonpayable"
        },
        {
            "type": "function",
            "name": "stake",
            "inputs": [
                {
                    "name": "amount",
                    "type": "uint256",
                    "internalType": "uint256"
                }
            ],
            "outputs": [
                {
                    "name": "success",
                    "type": "bool",
                    "internalType": "bool"
                }
            ],
            "stateMutability": "nonpayable"
        },
        {
            "type": "function",
            "name": "stakedBalances",
            "inputs": [
                {
                    "name": "",
                    "type": "address",
                    "internalType": "address"
                }
            ],
            "outputs": [
                {
                    "name": "",
                    "type": "uint256",
                    "internalType": "uint256"
                }
            ],
            "stateMutability": "view"
        },
        {
            "type": "function",
            "name": "stakingRewardRate",
            "inputs": [],
            "outputs": [
                {
                    "name": "",
                    "type": "uint256",
                    "internalType": "uint256"
                }
            ],
            "stateMutability": "view"
        },
        {
            "type": "function",
            "name": "stakingTimestamp",
            "inputs": [
                {
                    "name": "",
                    "type": "address",
                    "internalType": "address"
                }
            ],
            "outputs": [
                {
                    "name": "",
                    "type": "uint256",
                    "internalType": "uint256"
                }
            ],
            "stateMutability": "view"
        },
        {
            "type": "function",
            "name": "symbol",
            "inputs": [],
            "outputs": [
                {
                    "name": "",
                    "type": "string",
                    "internalType": "string"
                }
            ],
            "stateMutability": "view"
        },
        {
            "type": "function",
            "name": "totalStaked",
            "inputs": [],
            "outputs": [
                {
                    "name": "",
                    "type": "uint256",
                    "internalType": "uint256"
                }
            ],
            "stateMutability": "view"
        },
        {
            "type": "function",
            "name": "totalSupply",
            "inputs": [],
            "outputs": [
                {
                    "name": "",
                    "type": "uint256",
                    "internalType": "uint256"
                }
            ],
            "stateMutability": "view"
        },
        {
            "type": "function",
            "name": "transfer",
            "inputs": [
                {
                    "name": "to",
                    "type": "address",
                    "internalType": "address"
                },
                {
                    "name": "value",
                    "type": "uint256",
                    "internalType": "uint256"
                }
            ],
            "outputs": [
                {
                    "name": "",
                    "type": "bool",
                    "internalType": "bool"
                }
            ],
            "stateMutability": "nonpayable"
        },
        {
            "type": "function",
            "name": "transferFrom",
            "inputs": [
                {
                    "name": "from",
                    "type": "address",
                    "internalType": "address"
                },
                {
                    "name": "to",
                    "type": "address",
                    "internalType": "address"
                },
                {
                    "name": "value",
                    "type": "uint256",
                    "internalType": "uint256"
                }
            ],
            "outputs": [
                {
                    "name": "",
                    "type": "bool",
                    "internalType": "bool"
                }
            ],
            "stateMutability": "nonpayable"
        },
        {
            "type": "function",
            "name": "transferOwnership",
            "inputs": [
                {
                    "name": "newOwner",
                    "type": "address",
                    "internalType": "address"
                }
            ],
            "outputs": [],
            "stateMutability": "nonpayable"
        },
        {
            "type": "function",
            "name": "unpause",
            "inputs": [],
            "outputs": [
                {
                    "name": "success",
                    "type": "bool",
                    "internalType": "bool"
                }
            ],
            "stateMutability": "nonpayable"
        },
        {
            "type": "function",
            "name": "unstake",
            "inputs": [
                {
                    "name": "amount",
                    "type": "uint256",
                    "internalType": "uint256"
                }
            ],
            "outputs": [
                {
                    "name": "success",
                    "type": "bool",
                    "internalType": "bool"
                },
                {
                    "name": "rewardsClaimed",
                    "type": "uint256",
                    "internalType": "uint256"
                }
            ],
            "stateMutability": "nonpayable"
        },
        {
            "type": "event",
            "name": "Approval",
            "inputs": [
                {
                    "name": "owner",
                    "type": "address",
                    "indexed": true,
                    "internalType": "address"
                },
                {
                    "name": "spender",
                    "type": "address",
                    "indexed": true,
                    "internalType": "address"
                },
                {
                    "name": "value",
                    "type": "uint256",
                    "indexed": false,
                    "internalType": "uint256"
                }
            ],
            "anonymous": false
        },
        {
            "type": "event",
            "name": "MinimumStakeAmountUpdated",
            "inputs": [
                {
                    "name": "oldAmount",
                    "type": "uint256",
                    "indexed": false,
                    "internalType": "uint256"
                },
                {
                    "name": "newAmount",
                    "type": "uint256",
                    "indexed": false,
                    "internalType": "uint256"
                }
            ],
            "anonymous": false
        },
        {
            "type": "event",
            "name": "OwnershipTransferred",
            "inputs": [
                {
                    "name": "previousOwner",
                    "type": "address",
                    "indexed": true,
                    "internalType": "address"
                },
                {
                    "name": "newOwner",
                    "type": "address",
                    "indexed": true,
                    "internalType": "address"
                }
            ],
            "anonymous": false
        },
        {
            "type": "event",
            "name": "Paused",
            "inputs": [
                {
                    "name": "account",
                    "type": "address",
                    "indexed": false,
                    "internalType": "address"
                }
            ],
            "anonymous": false
        },
        {
            "type": "event",
            "name": "RewardsClaimed",
            "inputs": [
                {
                    "name": "user",
                    "type": "address",
                    "indexed": true,
                    "internalType": "address"
                },
                {
                    "name": "amount",
                    "type": "uint256",
                    "indexed": false,
                    "internalType": "uint256"
                }
            ],
            "anonymous": false
        },
        {
            "type": "event",
            "name": "Staked",
            "inputs": [
                {
                    "name": "user",
                    "type": "address",
                    "indexed": true,
                    "internalType": "address"
                },
                {
                    "name": "amount",
                    "type": "uint256",
                    "indexed": false,
                    "internalType": "uint256"
                },
                {
                    "name": "timestamp",
                    "type": "uint256",
                    "indexed": false,
                    "internalType": "uint256"
                }
            ],
            "anonymous": false
        },
        {
            "type": "event",
            "name": "StakingRewardRateUpdated",
            "inputs": [
                {
                    "name": "oldRate",
                    "type": "uint256",
                    "indexed": false,
                    "internalType": "uint256"
                },
                {
                    "name": "newRate",
                    "type": "uint256",
                    "indexed": false,
                    "internalType": "uint256"
                }
            ],
            "anonymous": false
        },
        {
            "type": "event",
            "name": "Transfer",
            "inputs": [
                {
                    "name": "from",
                    "type": "address",
                    "indexed": true,
                    "internalType": "address"
                },
                {
                    "name": "to",
                    "type": "address",
                    "indexed": true,
                    "internalType": "address"
                },
                {
                    "name": "value",
                    "type": "uint256",
                    "indexed": false,
                    "internalType": "uint256"
                }
            ],
            "anonymous": false
        },
        {
            "type": "event",
            "name": "Unpaused",
            "inputs": [
                {
                    "name": "account",
                    "type": "address",
                    "indexed": false,
                    "internalType": "address"
                }
            ],
            "anonymous": false
        },
        {
            "type": "event",
            "name": "Unstaked",
            "inputs": [
                {
                    "name": "user",
                    "type": "address",
                    "indexed": true,
                    "internalType": "address"
                },
                {
                    "name": "amount",
                    "type": "uint256",
                    "indexed": false,
                    "internalType": "uint256"
                },
                {
                    "name": "rewards",
                    "type": "uint256",
                    "indexed": false,
                    "internalType": "uint256"
                }
            ],
            "anonymous": false
        },
        {
            "type": "error",
            "name": "ERC20InsufficientAllowance",
            "inputs": [
                {
                    "name": "spender",
                    "type": "address",
                    "internalType": "address"
                },
                {
                    "name": "allowance",
                    "type": "uint256",
                    "internalType": "uint256"
                },
                {
                    "name": "needed",
                    "type": "uint256",
                    "internalType": "uint256"
                }
            ]
        },
        {
            "type": "error",
            "name": "ERC20InsufficientBalance",
            "inputs": [
                {
                    "name": "sender",
                    "type": "address",
                    "internalType": "address"
                },
                {
                    "name": "balance",
                    "type": "uint256",
                    "internalType": "uint256"
                },
                {
                    "name": "needed",
                    "type": "uint256",
                    "internalType": "uint256"
                }
            ]
        },
        {
            "type": "error",
            "name": "ERC20InvalidApprover",
            "inputs": [
                {
                    "name": "approver",
                    "type": "address",
                    "internalType": "address"
                }
            ]
        },
        {
            "type": "error",
            "name": "ERC20InvalidReceiver",
            "inputs": [
                {
                    "name": "receiver",
                    "type": "address",
                    "internalType": "address"
                }
            ]
        },
        {
            "type": "error",
            "name": "ERC20InvalidSender",
            "inputs": [
                {
                    "name": "sender",
                    "type": "address",
                    "internalType": "address"
                }
            ]
        },
        {
            "type": "error",
            "name": "ERC20InvalidSpender",
            "inputs": [
                {
                    "name": "spender",
                    "type": "address",
                    "internalType": "address"
                }
            ]
        },
        {
            "type": "error",
            "name": "EnforcedPause",
            "inputs": []
        },
        {
            "type": "error",
            "name": "ExpectedPause",
            "inputs": []
        },
        {
            "type": "error",
            "name": "OwnableInvalidOwner",
            "inputs": [
                {
                    "name": "owner",
                    "type": "address",
                    "internalType": "address"
                }
            ]
        },
        {
            "type": "error",
            "name": "OwnableUnauthorizedAccount",
            "inputs": [
                {
                    "name": "account",
                    "type": "address",
                    "internalType": "address"
                }
            ]
        },
        {
            "type": "error",
            "name": "ReentrancyGuardReentrantCall",
            "inputs": []
        }
    ],
    "bytecode": {
        "object": "0x60806040526101f4600b556100166012600a6103ad565b61002190600a6103c3565b600d5534801561003057600080fd5b50336040518060400160405280600b81526020016a2722a1aa29102a37b5b2b760a91b815250604051806040016040528060058152602001642722a1aa2960d91b81525081600390816100839190610479565b5060046100908282610479565b5050506001600160a01b0381166100c257604051631e4fbdf760e01b8152600060048201526024015b60405180910390fd5b6100cb816100f8565b5060016006556100f3336100e16012600a6103ad565b6100ee90620f42406103c3565b61014a565b61054a565b600580546001600160a01b038381166001600160a01b0319831681179093556040519116919082907f8be0079c531659141344cd1fd0a4f28419497f9722a3daafe3b4186f6b6457e090600090a35050565b6001600160a01b0382166101745760405163ec442f0560e01b8152600060048201526024016100b9565b61018060008383610184565b5050565b6001600160a01b0383166101af5780600260008282546101a49190610537565b909155506102219050565b6001600160a01b038316600090815260208190526040902054818110156102025760405163391434e360e21b81526001600160a01b038516600482015260248101829052604481018390526064016100b9565b6001600160a01b03841660009081526020819052604090209082900390555b6001600160a01b03821661023d5760028054829003905561025c565b6001600160a01b03821660009081526020819052604090208054820190555b816001600160a01b0316836001600160a01b03167fddf252ad1be2c89b69c2b068fc378daa952ba7f163c4a11628f55a4df523b3ef836040516102a191815260200190565b60405180910390a3505050565b634e487b7160e01b600052601160045260246000fd5b6001815b60018411156102ff578085048111156102e3576102e36102ae565b60018416156102f157908102905b60019390931c9280026102c8565b935093915050565b600082610316575060016103a7565b81610323575060006103a7565b816001811461033957600281146103435761035f565b60019150506103a7565b60ff841115610354576103546102ae565b50506001821b6103a7565b5060208310610133831016604e8410600b8410161715610382575081810a6103a7565b61038f60001984846102c4565b80600019048211156103a3576103a36102ae565b0290505b92915050565b60006103bc60ff841683610307565b9392505050565b80820281158282048414176103a7576103a76102ae565b634e487b7160e01b600052604160045260246000fd5b600181811c9082168061040457607f821691505b60208210810361042457634e487b7160e01b600052602260045260246000fd5b50919050565b601f82111561047457806000526020600020601f840160051c810160208510156104515750805b601f840160051c820191505b81811015610471576000815560010161045d565b50505b505050565b81516001600160401b03811115610492576104926103da565b6104a6816104a084546103f0565b8461042a565b6020601f8211600181146104da57600083156104c25750848201515b600019600385901b1c1916600184901b178455610471565b600084815260208120601f198516915b8281101561050a57878501518255602094850194600190920191016104ea565b50848210156105285786840151600019600387901b60f8161c191681555b50505050600190811b01905550565b808201808211156103a7576103a76102ae565b6117bb806105596000396000f3fe608060405234801561001057600080fd5b50600436106102535760003560e01c806373f273fc11610146578063a9059cbb116100c3578063e1f1c4a711610087578063e1f1c4a7146105a2578063e6a69ab8146105ab578063eacdb4b4146105b6578063f2fde38b146105be578063f6ed2017146105d1578063fd6a422d146105e457600080fd5b8063a9059cbb146104ed578063aa4704f314610500578063b7d685191461052e578063dd62ed3e14610541578063dfe6b5d61461057a57600080fd5b80638f0794fe1161010a5780638f0794fe1461047657806395ccea671461049657806395d89b41146104a9578063969de47a146104b1578063a694fc3a146104da57600080fd5b806373f273fc14610417578063817b1cd2146104375780638456cb5914610440578063852776b2146104485780638da5cb5b1461045b57600080fd5b80633765cf02116101d45780635ee09669116101985780635ee09669146103875780635f5724c1146103b05780636b036f45146103db57806370a08231146103e4578063715018a61461040d57600080fd5b80633765cf021461033a5780633a02a42d146103425780633f4ba83a1461036b5780634f3fc2df146103735780635c975abb1461037c57600080fd5b806318160ddd1161021b57806318160ddd146102de57806323b872dd146102e65780632e17de78146102f9578063313ce56714610323578063372500ab1461033257600080fd5b806306fdde03146102585780630917e77614610276578063095ea7b3146102885780630d29fcd4146102ab5780631460fa87146102be575b600080fd5b6102606105f7565b60405161026d9190611561565b60405180910390f35b600c545b60405190815260200161026d565b61029b6102963660046115c6565b610689565b604051901515815260200161026d565b61029b6102b93660046115f0565b6106a3565b61027a6102cc366004611609565b60086020526000908152604090205481565b60025461027a565b61029b6102f436600461162b565b61074f565b61030c6103073660046115f0565b610773565b60408051921515835260208301919091520161026d565b6040516012815260200161026d565b61030c610917565b600d5461027a565b61027a610350366004611609565b6001600160a01b031660009081526008602052604090205490565b61029b610a3f565b61027a600b5481565b60075460ff1661029b565b61027a610395366004611609565b6001600160a01b03166000908152600a602052604090205490565b61029b6103be366004611609565b6001600160a01b0316600090815260086020526040902054151590565b61027a600d5481565b61027a6103f2366004611609565b6001600160a01b031660009081526020819052604090205490565b610415610a57565b005b61027a610425366004611609565b600a6020526000908152604090205481565b61027a600c5481565b61029b610a6b565b61027a610456366004611668565b610a7d565b6005546040516001600160a01b03909116815260200161026d565b61027a610484366004611609565b60096020526000908152604090205481565b61029b6104a43660046115c6565b610aa1565b610260610b6e565b61027a6104bf366004611609565b6001600160a01b031660009081526009602052604090205490565b61029b6104e83660046115f0565b610b7d565b61029b6104fb3660046115c6565b610d29565b61051361050e366004611609565b610d37565b6040805193845260208401929092529082015260600161026d565b61029b61053c3660046115f0565b610dd5565b61027a61054f36600461168a565b6001600160a01b03918216600090815260016020908152604080832093909416825291909152205490565b610582610e68565b60408051948552602085019390935291830152606082015260800161026d565b61027a61271081565b61027a6301e1338081565b600b5461027a565b6104156105cc366004611609565b610e8e565b61027a6105df366004611609565b610ecc565b61027a6105f2366004611609565b610fa8565b606060038054610606906116bd565b80601f0160208091040260200160405190810160405280929190818152602001828054610632906116bd565b801561067f5780601f106106545761010080835404028352916020019161067f565b820191906000526020600020905b81548152906001019060200180831161066257829003601f168201915b5050505050905090565b600033610697818585610ff2565b60019150505b92915050565b60006106ad611004565b600082116107025760405162461bcd60e51b815260206004820152601e60248201527f4d696e696d756d206d7573742062652067726561746572207468616e2030000060448201526064015b60405180910390fd5b600d80549083905560408051828152602081018590527fe3117c3cc31e2d5d67afc8b5c366cd87a436cd3aaf93a169500733f4ebfb96ad91015b60405180910390a160019150505b919050565b60003361075d858285611031565b6107688585856110b0565b506001949350505050565b60008061077e61110f565b600083116107ce5760405162461bcd60e51b815260206004820152601760248201527f43616e6e6f7420756e7374616b65203020746f6b656e7300000000000000000060448201526064016106f9565b3360009081526008602052604090205483111561082d5760405162461bcd60e51b815260206004820152601b60248201527f496e73756666696369656e74207374616b65642062616c616e6365000000000060448201526064016106f9565b61083633611139565b336000908152600a602090815260408083208054908490556008909252822080549192869261086690849061170d565b9250508190555083600c600082825461087f919061170d565b909155505033600090815260086020526040902054156108ac573360009081526009602052604090204290555b6108b73033866110b0565b80156108c7576108c73382611200565b604080518581526020810183905233917f7fc4727e062e336010f2c282598ef5f14facb3de68cf8195c2f23e1454b2b74e910160405180910390a26001925090506109126001600655565b915091565b60008061092261110f565b336000908152600860205260409020546109715760405162461bcd60e51b815260206004820152601060248201526f139bc81d1bdad95b9cc81cdd185ad95960821b60448201526064016106f9565b61097a33611139565b336000908152600a6020526040902054806109cd5760405162461bcd60e51b81526020600482015260136024820152724e6f207265776172647320746f20636c61696d60681b60448201526064016106f9565b336000818152600a60209081526040808320839055600990915290204290556109f69082611200565b60405181815233907ffc30cddea38e2bf4d6ea7d3f9ed3b6ad7f176419f4963bd81318067a4aee73fe9060200160405180910390a2600192509050610a3b6001600655565b9091565b6000610a49611004565b610a5161123a565b50600190565b610a5f611004565b610a69600061128c565b565b6000610a75611004565b610a516112de565b6000821580610a8a575081155b15610a975750600061069d565b50600b5492915050565b6000610aab611004565b610ab361131b565b6001600160a01b038316610afb5760405162461bcd60e51b815260206004820152600f60248201526e496e76616c6964206164647265737360881b60448201526064016106f9565b30600090815260208190526040902054821115610b5a5760405162461bcd60e51b815260206004820152601d60248201527f496e73756666696369656e7420636f6e74726163742062616c616e636500000060448201526064016106f9565b610b653084846110b0565b50600192915050565b606060048054610606906116bd565b6000610b8761110f565b610b8f61133e565b60008211610bd75760405162461bcd60e51b815260206004820152601560248201527443616e6e6f74207374616b65203020746f6b656e7360581b60448201526064016106f9565b600d54821015610c295760405162461bcd60e51b815260206004820152601a60248201527f416d6f756e742062656c6f77206d696e696d756d207374616b6500000000000060448201526064016106f9565b33600090815260208190526040902054821115610c7f5760405162461bcd60e51b8152602060048201526014602482015273496e73756666696369656e742062616c616e636560601b60448201526064016106f9565b610c8833611139565b610c933330846110b0565b3360009081526008602052604081208054849290610cb2908490611720565b9250508190555081600c6000828254610ccb9190611720565b90915550503360008181526009602090815260409182902042908190558251868152918201527f1449c6dd7851abc30abf37f57715f492010519147cc2652fbc38202c18a6ee90910160405180910390a250600161074a6001600655565b6000336106978185856110b0565b6001600160a01b03811660008181526008602052604080822054905163f6ed201760e01b81526004810193909352918190309063f6ed201790602401602060405180830381865afa158015610d90573d6000803e3d6000fd5b505050506040513d601f19601f82011682018060405250810190610db49190611733565b6001600160a01b039094166000908152600960205260409020549294915050565b6000610ddf611004565b6107d0821115610e2a5760405162461bcd60e51b8152602060048201526016602482015275526174652063616e6e6f74206578636565642032302560501b60448201526064016106f9565b600b80549083905560408051828152602081018590527fc68458eaf1fcc6681f9b18ea24bddb0641c40c625df6c1e5b72f865224b5d9c9910161073c565b600080600080610e7760025490565b9350600c549250600b549150600d54905090919293565b610e96611004565b6001600160a01b038116610ec057604051631e4fbdf760e01b8152600060048201526024016106f9565b610ec98161128c565b50565b6001600160a01b0381166000908152600860205260408120548103610f0757506001600160a01b03166000908152600a602052604090205490565b6001600160a01b038216600090815260096020526040812054610f2a904261170d565b90506000610f3e6301e1338061271061174c565b600b546001600160a01b0386166000908152600860205260409020548491610f659161174c565b610f6f919061174c565b610f799190611763565b6001600160a01b0385166000908152600a6020526040902054909150610fa0908290611720565b949350505050565b6001600160a01b0381166000908152600960205260408120548103610fcf57506000919050565b6001600160a01b03821660009081526009602052604090205461069d904261170d565b610fff8383836001611362565b505050565b6005546001600160a01b03163314610a695760405163118cdaa760e01b81523360048201526024016106f9565b6001600160a01b038381166000908152600160209081526040808320938616835292905220546000198110156110aa578181101561109b57604051637dc7a0d960e11b81526001600160a01b038416600482015260248101829052604481018390526064016106f9565b6110aa84848484036000611362565b50505050565b6001600160a01b0383166110da57604051634b637e8f60e11b8152600060048201526024016106f9565b6001600160a01b0382166111045760405163ec442f0560e01b8152600060048201526024016106f9565b610fff838383611437565b60026006540361113257604051633ee5aeb560e01b815260040160405180910390fd5b6002600655565b6001600160a01b03811660009081526008602052604090205415610ec9576001600160a01b03811660009081526009602052604081205461117a904261170d565b9050600061118e6301e1338061271061174c565b600b546001600160a01b03851660009081526008602052604090205484916111b59161174c565b6111bf919061174c565b6111c99190611763565b6001600160a01b0384166000908152600a60205260408120805492935083929091906111f6908490611720565b9091555050505050565b6001600160a01b03821661122a5760405163ec442f0560e01b8152600060048201526024016106f9565b61123660008383611437565b5050565b61124261131b565b6007805460ff191690557f5db9ee0a495bf2e6ff9c91a7834c1ba4fdd244a5e8aa4e537bd38aeae4b073aa335b6040516001600160a01b03909116815260200160405180910390a1565b600580546001600160a01b038381166001600160a01b0319831681179093556040519116919082907f8be0079c531659141344cd1fd0a4f28419497f9722a3daafe3b4186f6b6457e090600090a35050565b6112e661133e565b6007805460ff191660011790557f62e78cea01bee320cd4e420270b5ea74000d11b0c9f74754ebdbfc544b05a25861126f3390565b60075460ff16610a6957604051638dfc202b60e01b815260040160405180910390fd5b60075460ff1615610a695760405163d93c066560e01b815260040160405180910390fd5b6001600160a01b03841661138c5760405163e602df0560e01b8152600060048201526024016106f9565b6001600160a01b0383166113b657604051634a1406b160e11b8152600060048201526024016106f9565b6001600160a01b03808516600090815260016020908152604080832093871683529290522082905580156110aa57826001600160a01b0316846001600160a01b03167f8c5be1e5ebec7d5bd14f71427d1e84f3dd0314c0f7b2291e5b200ac8c7c3b9258460405161142991815260200190565b60405180910390a350505050565b6001600160a01b0383166114625780600260008282546114579190611720565b909155506114d49050565b6001600160a01b038316600090815260208190526040902054818110156114b55760405163391434e360e21b81526001600160a01b038516600482015260248101829052604481018390526064016106f9565b6001600160a01b03841660009081526020819052604090209082900390555b6001600160a01b0382166114f05760028054829003905561150f565b6001600160a01b03821660009081526020819052604090208054820190555b816001600160a01b0316836001600160a01b03167fddf252ad1be2c89b69c2b068fc378daa952ba7f163c4a11628f55a4df523b3ef8360405161155491815260200190565b60405180910390a3505050565b602081526000825180602084015260005b8181101561158f5760208186018101516040868401015201611572565b506000604082850101526040601f19601f83011684010191505092915050565b80356001600160a01b038116811461074a57600080fd5b600080604083850312156115d957600080fd5b6115e2836115af565b946020939093013593505050565b60006020828403121561160257600080fd5b5035919050565b60006020828403121561161b57600080fd5b611624826115af565b9392505050565b60008060006060848603121561164057600080fd5b611649846115af565b9250611657602085016115af565b929592945050506040919091013590565b6000806040838503121561167b57600080fd5b50508035926020909101359150565b6000806040838503121561169d57600080fd5b6116a6836115af565b91506116b4602084016115af565b90509250929050565b600181811c908216806116d157607f821691505b6020821081036116f157634e487b7160e01b600052602260045260246000fd5b50919050565b634e487b7160e01b600052601160045260246000fd5b8181038181111561069d5761069d6116f7565b8082018082111561069d5761069d6116f7565b60006020828403121561174557600080fd5b5051919050565b808202811582820484141761069d5761069d6116f7565b60008261178057634e487b7160e01b600052601260045260246000fd5b50049056fea264697066735822122003f56fbfbcca5db1348bfffd08191740002a45da207bc8a2d1c7bbd8d46fbdcb64736f6c634300081c0033",
        "linkReferences": {}
    },
    "methodIdentifiers": {
        "BASIS_POINTS()": "e1f1c4a7",
        "SECONDS_PER_YEAR()": "e6a69ab8",
        "accumulatedRewards(address)": "73f273fc",
        "allowance(address,address)": "dd62ed3e",
        "approve(address,uint256)": "095ea7b3",
        "balanceOf(address)": "70a08231",
        "calculateApy(uint256,uint256)": "852776b2",
        "claimRewards()": "372500ab",
        "decimals()": "313ce567",
        "emergencyWithdraw(address,uint256)": "95ccea67",
        "getAccumulatedRewards(address)": "5ee09669",
        "getContractStats()": "dfe6b5d6",
        "getMinimumStakeAmount()": "3765cf02",
        "getPendingRewards(address)": "f6ed2017",
        "getStakedBalance(address)": "3a02a42d",
        "getStakingDuration(address)": "fd6a422d",
        "getStakingInfo(address)": "aa4704f3",
        "getStakingRewardRate()": "eacdb4b4",
        "getStakingTimestamp(address)": "969de47a",
        "getTotalStaked()": "0917e776",
        "hasStakedTokens(address)": "5f5724c1",
        "minimumStakeAmount()": "6b036f45",
        "name()": "06fdde03",
        "owner()": "8da5cb5b",
        "pause()": "8456cb59",
        "paused()": "5c975abb",
        "renounceOwnership()": "715018a6",
        "setMinimumStakeAmount(uint256)": "0d29fcd4",
        "setStakingRewardRate(uint256)": "b7d68519",
        "stake(uint256)": "a694fc3a",
        "stakedBalances(address)": "1460fa87",
        "stakingRewardRate()": "4f3fc2df",
        "stakingTimestamp(address)": "8f0794fe",
        "symbol()": "95d89b41",
        "totalStaked()": "817b1cd2",
        "totalSupply()": "18160ddd",
        "transfer(address,uint256)": "a9059cbb",
        "transferFrom(address,address,uint256)": "23b872dd",
        "transferOwnership(address)": "f2fde38b",
        "unpause()": "3f4ba83a",
        "unstake(uint256)": "2e17de78"
    },
    "id": 24
}